:020000040800F2
:1000000000FC0120DD020008BD660008D91F0008C1
:10001000B966000875190008F771000800000000B3
:10002000000000000000000000000000196A000845
:10003000D1190008000000004D670008996B000806
:10004000F7020008F7020008F7020008F7020008AC
:10005000F7020008F7020008F7020008F70200089C
:10006000F7020008F7020008F7020008F70200088C
:10007000F7020008F7020008F7020008F70200087C
:10008000F7020008F7020008F7020008F70200086C
:10009000F7020008F7020008F7020008F70200085C
:1000A000F7020008F7020008F7020008F70200084C
:1000B000F7020008F7020008F7020008F70200083C
:1000C000F7020008F7020008F7020008F70200082C
:1000D000F70200087D6E0008F7020008BD6E0008F8
:1000E000F7020008F7020008F7020008F70200080C
:1000F000F7020008F7020008F7020008F7020008FC
:10010000F7020008F7020008F7020008F7020008EB
:10011000F7020008F7020008116D0008F702000856
:10012000F7020008F7020008F7020008F7020008CB
:10013000F7020008F7020008F7020008F7020008BB
:10014000F7020008F7020008F7020008F7020008AB
:10015000F7020008F7020008F7020008DD6E000849
:10016000F7020008F7020008F7020008F70200088B
:10017000F7020008F7020008F7020008F70200087B
:10018000F7020008F702000800F002F800F092F809
:100190000AA090E8000C82448344AAF10107DA45E2
:1001A00001D100F087F8AFF2090EBAE80F0013F0A2
:1001B000010F18BFFB1A43F0010318478498000091
:1001C000A4980000103A24BF78C878C1FAD8520722
:1001D00024BF30C830C144BF04680C6070470000C1
:1001E0000023002400250026103A28BF78C1FBD840
:1001F000520728BF30C148BF0B6070476E2900F01E
:10020000FD82702900F04F81662907F0CC876529AF
:1002100007F0C987672907F0C6876129AFF3008017
:1002200003681B0A28BF41F08001692900F0C080E3
:10023000642900F0BD80752900F0BA806F2900F0B4
:10024000F583782900F01B81E92900F08F83E429E8
:1002500000F08C83F52900F08983EF2900F0F28308
:10026000F82900F01A810368DB0928BF41F08001FA
:10027000632900F0FE82732900F00383E32900F074
:100280004786F32900F04C86002070471FB507F021
:1002900085FF00F09BFE04000020002107F02AFEED
:1002A000401C60600020002107F00EFEE0601FBDD2
:1002B00010B510BD00F05CFE1146FFF7E7FF07F038
:1002C0005DF900F035FF03B4FFF7F2FF03BC06F061
:1002D000B3FF000080F3088870470000094880479A
:1002E00009480047FEE7FEE7FEE7FEE7FEE7FEE718
:1002F000FEE7FEE7FEE7FEE704480549054A064B30
:1003000070470000A96C000889010008B80C0020A3
:1003100000FC0120B80E002000F80120704700000A
:100320001CB50C46064B7B4469460090204600F005
:100330007EFA04460020694600F08CFA20461CBD77
:100340002B0500000FB4044910B503AA029800F071
:100350009DFA10BC5DF814FB1400002070B50C462B
:100360000546012A05D02878800600D5EA690023D1
:1003700002E0012305E05B1C934202D2E05C00280E
:10038000F9D1A869E618C01AA861286A1844286239
:10039000284600F0A1F904E0D5E9012114F8010B89
:1003A0009047B442F8D3284600F0ACF970BD000085
:1003B0002DE9F0410646002410687529314616A53E
:1003C00010D000F0B0F9002802DA404213A507E08F
:1003D00031688A0701D512A502E0490704D511A5A5
:1003E000012401E000F0A8F900210A2206F1240707
:1003F00009E0B0FBF2FCB0FBF2F302FB1C00303072
:1004000078541846491C0028F3D123462A46304622
:10041000BDE8F04100F099B9000000002D00000097
:100420002B00000020000000F0B40D4601880905F3
:1004300002D5214C7C4402E01F4C7C440E34002148
:1004400000F1240608E002F00F071209E75D42EA16
:1004500003721B097754491C52EA0307F3D102784F
:100460000023120704D5702D06D009B102231134E0
:100470002246F0BC00F069B901231034F8E770B5EA
:1004800004460D462146106800F056F902462946FA
:100490002046BDE870400023C6E7D21D22F00703C6
:1004A000D3E90023C0E70368126843F02003036028
:1004B0000823C3610023B7E7329500002DE9F05F00
:1004C000894604464FF0000ADFF874B1FB44C0F8D7
:1004D00020A02046E1688847002874D0252806D04F
:1004E000D4E901219047206A401C2062F1E70026F0
:1004F0005F462046E16888472028054607DB312D06
:1005000005D2781910F8200C08B10643F1E7B007BE
:1005100001D526F00406C4F81CA00027C4F818A0D2
:100520002A2D09D0284606F080FE38B304EB870850
:10053000303DC8F8185019E059F8041B204604EB68
:1005400087029161E1688847012F054618D1E0696B
:10055000002820DA26F020061DE0D8F8180000EB6D
:10056000800005EB40003038C8F818002046E168EC
:100570008847054606F059FE0028EED1012F0AD023
:100580002E2D08D12046E16888477F1C0546022FA2
:1005900046F02006C4DBA069002803DA404246F09A
:1005A0000106A061F00701D026F010066C2D0BD0DB
:1005B000682D09D04C2D39D06A2D35D0742D35D009
:1005C0007A2D33D016E038E0E1682F462046884780
:1005D000B842054609D16C2F26D04FF48060E168FF
:1005E000064320468847054604E06C2F1AD04FF496
:1005F000807006430DB3A5F14100192802D82035BB
:1006000046F400664A462946204626604E46FFF7D5
:10061000F5FD80B101280BD0F61D26F0070000F192
:10062000080956E74020E4E78020D8E70020D6E715
:1006300006F104094DE7284652E7206ABDE8F09F1D
:10064000C294000010B5431C02E010F8011B71B108
:100650008107FAD14FF0013202C88C1A8C4314EA98
:10066000C211F9D0C01A0A0603D0C01E10BDC01AAC
:1006700010BD0A0401D0801E10BD0902FCD0401E2E
:1006800010BD4FF0000200B513469446964620393F
:1006900022BFA0E80C50A0E80C50B1F12001BFF43B
:1006A000F7AF090728BFA0E80C5048BF0CC05DF8A1
:1006B00004EB890028BF40F8042B08BF704748BFEF
:1006C00020F8022B11F0804F18BF00F8012B704763
:1006D000704770477047704770B504468569006879
:1006E000C10601D5302600E02026C00707D070BD26
:1006F000D4E9012130469047206A401C20626D1EDB
:10070000F6D570BD70B5044685690078C00707D17D
:1007100070BDD4E9012120209047206A401C20624E
:100720006D1EF6D570BD09684A0501D540B2704707
:10073000C905FCD500B2704709684A0501D5C0B2A9
:100740007047C905FCD580B270472DE9F0470D46CA
:1007500099469246044600F124080168880604D5AB
:10076000E06921F01001216000E00120A84201DDD4
:10077000471B00E00027A1697A1902EB0900081A5B
:10078000A0612078C00602D42046FFF7A5FF00260E
:1007900008E0D4E901211AF806009047206A401CBD
:1007A000761C20624E45F4DB2078C0060AD5204630
:1007B000FFF792FF06E0D4E9012130209047206A3C
:1007C000401C2062381EA7F10107F4DC07E0D4E9E1
:1007D000012118F805009047206A401C2062281E5D
:1007E000A5F10105F3DC2046FFF78CFF2078000619
:1007F00002D50220BDE8F0870120FBE711680268FE
:10080000006A530501D508700AE0D30501D50880B8
:1008100006E0130603D5C217C1E9000200E0086034
:100820000120704701694A1C02610878704700B5D1
:100830008FB0CDE901310021059105497944CDE919
:10084000031011466846FFF739FE0FB000BD0000E7
:10085000E5FFFFFF0A6802F8010B0A60704710B558
:10086000436913B1AFF3008001E0FFF777FD01208A
:1008700010BD127800F124010A7000224A70012292
:10088000EDE711684FF0FF32E9E70000074B70B564
:100890000D467B44FFF7CBFF0446284600F044FB9F
:1008A00010B14FF0FF3070BD204670BDDF6A000010
:1008B0002DE9FF5F15468A460446DFF8AC80F84410
:1008C0000027D8E900103E46CDE9001010E03AF8C4
:1008D00016106A4602A800F02BFB411C07D02178B5
:1008E000890603D5E269391891420DD80744761C70
:1008F0002078800602D5E069B84205DDAE42E6DB2D
:100900003AF816000028E2D1A069C01BA061204679
:10091000FFF7E2FED8E90010CDE90010002017E053
:100920003AF818106A4602A800F002FBB0F1FF3F47
:1009300081460BD000250DF1080B05E0D4E901211B
:100940001BF8050090476D1C4D45F7D308F10100D9
:10095000B0428046E4DB206A384420622046FFF73C
:10096000D1FEBDE8FF9F0000E29000002DE9F041BC
:100970008046D21D22F007020025D2E90002F529A7
:1009800015A614D0011E72F1000106DA0023D0EB87
:10099000030063EB020211A608E0D8F800108B07F1
:1009A00001D50FA602E0490701D50EA60125114683
:1009B000002408F1240704E000F04EF830323A55E4
:1009C000641C50EA0102F7D12B46324621464046CC
:1009D000BDE8F041FFF7B9BE000000002D000000A7
:1009E0002B0000002000000030B4002100F124049E
:1009F00008E002F00705D208303542EA4372DB080E
:100A00006554491C52EA0305F3D10468002310A27F
:100A1000250708D504F020040C4304D0C469012341
:100A20000CA2641EC46130BCFFF78FBE10B5044633
:100A300021461068FFF780FE02462046BDE81040C0
:100A40000023D1E7D21D22F00701D1E90023CBE733
:100A5000000000003000000030B5B0F10A024FEA9B
:100A6000900E71F100034EEA817EB0EB0E0061EB57
:100A700091014FEA101E4EEA017E10EB0E0041EB91
:100A800011114FEA102E4EEA016E10EB0E0041EBF1
:100A900011214FEA104E4EEA014E10EB0E0041EBD1
:100AA0001141401841F100014FEAD00040EA417085
:100AB0004FEAD10110EB80054FEA810444EA9074BB
:100AC00044EB01046D1944EB0404521BA3414FF0A5
:100AD000000348BF0A3200D530BD401C41F100017F
:100AE00030BD70472DE9FF4F0C461E464FF0FF37D3
:100AF0008BB0D2E90001DDF860800A908A46C1F32C
:100B00000A5505B93D46002108464FF00000BAF1EC
:100B1000000F00F4400005DA00EB80004FF44001C4
:100B200001EA50004FEA9059B9F1010F00DDB946D2
:100B30000A9850EA4A000ED044F61050A5F2FF354C
:100B400045432F14B8F1000F1ED07542291E1EDD3B
:100B5000C9F100021CE0B8F1010F4FF0000001D014
:100B6000302103E0F24305E02154401CB042FBDB9E
:100B700030460022002121540B99C1F80880C1E9B8
:100B800000200FB0BDE8F08FBD1B6D1CDEE74A46AC
:100B900000DA694206A800F05DFA06AB93E80700A8
:100BA00003AB83E8070050460A9900F00BFB8DE881
:100BB0000700A0F500501F3800900398002D09DDB4
:100BC00042F21F014A46084403A90390684600F018
:100BD0006AFD08E0A0F500504A461F3803A90390BB
:100BE000684600F074FD8DE807000004000C03D097
:100BF0004FF0FF30410800E01046B8F1000F03D07D
:100C00000022009215461EE0751E05D4FFF724FF52
:100C1000303262556D1EF9D5B3460122084302D029
:100C200000227F1C04E02078302801D100227F1EA2
:100C3000002A099786D01DE0112D07DAFFF70CFF77
:100C4000303262556D1C50EA0102F5D1084302D0E2
:100C50000098C8B10EE00021681E05E0235C625CCC
:100C600063542254401E491C8142F7DBAB46A81B4B
:100C7000401E0990002004F80B000B98099AC0F858
:100C80000880C0E9002B7CE711264FF0000859E7E7
:100C90002DE9F04F88460446D21D22F0070191B09D
:100CA000D1E90001CDE90A0106F0A7FA02460B9846
:100CB000C00F01D02D2007E02068810701D52B202F
:100CC00002E0202101EAC000032A099001D0072A8E
:100CD00005DB03464146204600F07CF90BE1207815
:100CE000800601D5E06900E00620B8F1650F814675
:100CF00006D0B8F1660F18D0B8F1670F70D131E0A7
:100D00000020B9F1110F009001DB112301E009F17E
:100D100001030AAA01A90CA8FFF7E4FEDDE90C70A3
:100D2000002609F10105834647E001204B4600906B
:100D30004FF000470AAA01A90CA8FFF7D3FEDDE98E
:100D40000DB00C995D46002610B909F101000D188F
:100D5000B9EB050003D4C0F1FF3609F10105A5EB9D
:100D600009002BE0B9F1010F01DA4FF00109002071
:100D7000B9F1110F0090484601DD112300E0034650
:100D80000AAA01A90CA8FFF7ADFEDDE90C704D46DB
:100D900000268346207800070AD4AB4500DA5D467A
:100DA00001A8012D04DD411911F8011C302907D0DB
:100DB0004F4502DA17F1040F04DA012082460FE0F2
:100DC0006D1EEEE7002F02DCED1B3E4403E0781CB5
:100DD000A84200DD7D1CB81B00F1010A4FF000475E
:100DE0002078000703D4AA4501DB4FF0FF3A002129
:100DF000B7F1004F0DF143088DF8431024D00220C5
:100E00002B23002F01DA7F422D230A21021EA0F19D
:100E1000010000DC5FB197FBF1FC97FBF1F201FBF5
:100E20001C7C17460CF1300C08F801CDEEE7A8F158
:100E3000010003702188090501D5452100E06521E5
:100E4000A0F1010800F8011C09980FA9A1EB0807FF
:100E5000FF1D00B10120411901EBEA70A16938447E
:100E6000081A401EA0612078C00602D42046FFF771
:100E700033FC099828B1D4E901219047206A401C2D
:100E800020622078C00622D52046FFF725FC1EE010
:100E9000002E04DBB34502DD01A8805D00E03020B8
:100EA000D4E901219047206A401C2062761CAAF1F7
:100EB00001005FEA000A0AD100F088F8C068016802
:100EC000405CD4E901219047206A401C2062281E22
:100ED000A5F10105DCDC07E0D4E9012118F8010BDC
:100EE0009047206A401C2062381EA7F10107F3DCFE
:100EF0002046FFF707FC032011B043E610B5436915
:100F000013B1AFF3008001E0FFF7D2FC012010BD68
:100F1000128800F1240182840022C2840122EDE7BC
:100F200011684FF0FF32E9E7007B00F08000704766
:100F300070B516460C46054600F040F8036893F875
:100F40000101012806D0FF2C0FD8185D68B10120DF
:100F50002C7070BDD3F807013246214603F2071307
:100F600003442846BDE8704018474FF0FF3070BD7D
:100F7000754600F0E3F8AE4605006946534620F09A
:100F80000700854618B020B5FFF7B6F9BDE8204048
:100F90004FF000064FF000074FF000084FF0000B35
:100FA00021F00701AC46ACE8C009ACE8C009ACE8E8
:100FB000C009ACE8C0098D467047000010B500F0CC
:100FC00005F8001D10BD00BF2D6F000000487047E0
:100FD000780C00202DE9F0411F46044603260168E5
:100FE000072A01F4006004DB08B116A505E016A588
:100FF00003E008B115A500E015A521F01000206060
:10100000A069C01EA0610FB1401EA0612046FFF77D
:1010100063FB4FB1D4E9012138469047206A401C58
:101020002062C01C206206E0206AFAE7D4E90121B0
:1010300015F8010B9047761EF8D22046FFF762FBA9
:10104000BDE8F0814E414E006E616E00494E460093
:10105000696E66002DE9F047814616468AB033482E
:1010600078440DC88DE80D0030487844801C03ACEE
:101070000DC884E80D0041F69B300844372190FBF1
:10108000F1F290FBF1F5A5F1800501FB12041B3C88
:1010900002D56442012000E00020DFF890A08046E5
:1010A0000027FA44AAF1BE0A0DE0E00709D0324653
:1010B000684607EB47010AEB810100F008FB8DE869
:1010C000070064107F1C002CEFD1184F7F44AC3F09
:1010D00018E0E80714D007EB04100DF1180A90E8A7
:1010E0000E008AE80E00C068F04201D198190890FD
:1010F000324606A903A800F0EAFA03AB83E807002A
:101100006D10641C002DE4D132466946B8F1000F21
:1011100003A802D000F0C7FA01E000F0D8FAC9E94C
:101120000001C9F808200AB0BDE8F087C4890000B2
:101130000446AFF300802046FFF7C5F8004870472B
:10114000580C00204FF0013C50F8042B51F8043BA0
:101150009A4221D1A2EB0C03934313EACC1317D18B
:1011600050F8042B51F8043B9A4215D1A2EB0C0322
:10117000934313EACC130BD150F8042B51F8043BE2
:101180009A4209D1A2EB0C03934313EACC13DBD0B0
:101190004FF00000704700BFD01A01BAB1FA81F1D8
:1011A00001F0180122FA01F0CB40C1F12001DBB2BD
:1011B000C0B2C01A2CFA01F3D11A914311EAC3113B
:1011C000E6D170475FEA400C08BF91F0000F4FEA8C
:1011D0008C234FEAC12243EA51514FEA1C5018BFF9
:1011E00000F5F0404FEA300018BF41F000415FEADF
:1011F0006C5C00F02980BCF1FF3F08BF40F08040EC
:101200007047130C06BF12044FF0100C4FF0000C87
:10121000130E04BF12020CF1080C130F04BF1201CD
:101220000CF1040C930F04BF92000CF1020CD30FCD
:1012300004BF52000CF1010C11464FF00002A0F166
:101240001F00A0EB0C00704711F0004F08BF704763
:1012500031F000413FF4D5AF0B0C06BF09044FF04D
:10126000100C4FF0000C0B0E04BF09020CF1080C1F
:101270000B0F04BF09010CF1040C8B0F04BF890094
:101280000CF1020CCB0F04BF49000CF1010CCCF1A6
:101290002003A0EB0C0022FA03F302FA0CF241EA5D
:1012A000030100F10100704720F07F4C80EA030049
:1012B00023F07F47ACEB070303F57C5300F00040BD
:1012C00003F1FF032DE980494FEA154B09B44FEABA
:1012D000144325EA0B4E24EA03480FF2042606EBDA
:1012E000132749083E785FEA320203FB0667C7F519
:1012F000000707FB06F64FEA54374FEAD64606F1D9
:10130000020607FB066CCCF1005C4FEA1C472CEA96
:10131000074C07FB06F40CFB06F504EB15464FEAF9
:10132000961634BF00204FF000404FEAD13706FB3D
:1013300007FC4FEA1C4C0CFB0BF7D21B03FB0CF712
:1013400061EB07010CFB0EF7B0EB074072EB1742A5
:101350000CFB08F734BFA2EB0742B2EB074261EB8C
:1013600017414FEA0C444FEA910706FB07FC4FEA8E
:101370001C4C0CFB0BF7B0EBC74072EB573203FB76
:101380000CF734BFA2EBC742B2EBC74261EB573157
:101390000CFB0EF7B0EBC70072EB57720CFB08F7B3
:1013A00034BFA2EBC702B2EBC70261EB5771039FD8
:1013B0004FEA816141EA921104EBCC044FEAD13744
:1013C0004FEA826206FB07FC42EA90124FEA806015
:1013D0004FEA1C4C0CFB0BF7D21B03FB0CF761EB29
:1013E00007010CFB0EF7B0EB074072EB17420CFB4A
:1013F00008F734BFA2EB0742B2EB074261EB17419B
:101400004FEA8C554FEA910704EB9C2406FB07FC3E
:101410004FEA1C4C0CFB0BF7B0EBC74072EB57329A
:1014200003FB0CF734BFA2EBC742B2EBC74261EB40
:1014300057310CFB0EF7B0EBC70072EB57720CFB89
:1014400008F734BFA2EBC702B2EBC70261EB5771DA
:1014500015EB4C254FEA816141EA92114FEA826215
:101460004FEAD13742EA901206FB07FC44F1000430
:101470004FEA80604FEA1C4C0CFB0BF7D21B03FBBE
:101480000CF761EB07010CFB0EF7B0EB074072EBBA
:1014900017420CFB08F734BFA2EB0742B2EB07423E
:1014A00061EB174115EB1C154FEA813141EA92417E
:1014B0004FEA823242EA90424FEA80304FEA0C769D
:1014C00044F1000448EA03434EEA0B484FF0000E93
:1014D000B2EB080C71EB030724BF624639464EEBB2
:1014E0000E0E4FF0000B0018524149414BEB0B0B15
:1014F000B2EB080C71EB03077BF1000B24BF6246D3
:1015000039464EEB0E0E4FF0000B00185241494188
:101510004BEB0B0BB2EB080C71EB03077BF1000BF1
:1015200024BF624639464EEB0E0E51EA020718BF41
:1015300046F0010616EB0E7655F1000254F100015B
:1015400003D5BDE88901BDE80088BDE88901BDE893
:101550000048B619524141EB0101A3F10103704764
:1015600080807F7E7D7C7B7A7978777676757473E0
:10157000727171706F6E6E6D6C6C6B6A6A6968689F
:10158000676666656464636362616160605F5F5E35
:101590005E5D5D5C5C5B5B5A5A59595858575756AB
:1015A0005655555554545353525252515150505010
:1015B0004F4F4F4E4E4D4D4D4C4C4C4B4B4B4A4A62
:1015C0004A494949484848474747474646464545A6
:1015D00045444444444343434342424242414141DF
:1015E000002B26D4770021D01CB54FEA370703B46F
:1015F0004FF010004FF010014FF000000FBCBDE89D
:1016000010400BF1010BBBF1010F08BF5FEA170798
:1016100022BF12F1010211F101014FF0004143F12B
:10162000000300F0004043EA00007047F9D3570878
:10163000DAE746EA064613F1400F4FEA16461FDD89
:1016400013F1200FDFBF16430A46002120335B420F
:10165000C8D0C3F1200746EA064602FA07F74FEA68
:10166000164646EA0706C3F1200722FA03F201FAFA
:1016700007F721FA03F14FF0000342EA0702B1E74E
:1016800046EA020646EA06464FEA164646EA0106DA
:10169000BCBF46EA0646360C4FF000034FF000028E
:1016A0004FF000019EE72DE9C048934630B491E821
:1016B000380007C831EA400C48BF34EA430C03D570
:1016C000FFF7F2FDFFF78CFFF0BCBDE800882DE9C5
:1016D000C048934630B491E8380007C810F0804FF6
:1016E00008BF13F0804F03D100F005F8FFF778FF33
:1016F000F0BCBDE8008820F07F4780EA030023F0BB
:101700007F4C07EB0C03A3F57C5300F00040A3F1E2
:10171000FE0392F0000F00F0B38095F0000F00F090
:1017200077802DE901494FEA11404FEA144621EA3A
:10173000004800FB06FC24EA064708FB06F607FB08
:1017400008F800FB07F718EB06484CEB164C4FEA7D
:10175000124B18EB07484FEA15464CEB174022EAAC
:101760000B4E0BFB06FC25EA06470EFB06F607FBB5
:101770000EFE0BFB07F71EEB064E4CEB164C4FF024
:1017800000061EEB074E4CEB174B18EB0B0840F115
:10179000000018EB0E0B58EB000840F100008F1A08
:1017A0004FF000013CBFC943661B14BFB5EB040CEE
:1017B00000213CBFC943F61B4FEA17444EEA8E0E88
:1017C00027EA04454FEA1C4704FB07622CEA074C52
:1017D00005FB07F70CFB05F604FB0CFC16EB0746B4
:1017E00042EB174216EB0C4642EB1C421BEB060683
:1017F00058EB0202414146EA9E0601D5BDE8018947
:10180000B619524141EB0101A3F10103BDE8018981
:101810004FEA14454FEA114724EA054621EA074CEE
:1018200005FB07F406FB07F70CFB06F105FB0CFCB8
:1018300011EB074144EB17444FEA124711EB0C41FF
:1018400044EB1C4422EA074C05FB07F206FB07F7B2
:101850000CFB06F605FB0CFC16EB074642EB1742A9
:1018600016EB0C4642EB1C456A1854F1000148BFC8
:101870007047B619524141EB0101A3F101037047D2
:1018800095F0000F37D04FEA11424FEA144721EA92
:10189000024624EA074C02FB07F106FB07F70CFBA4
:1018A00006F402FB0CFC14EB074441EB17414FEA32
:1018B000154714EB0C4441EB1C4125EA074C02FB95
:1018C00007F506FB07F70CFB06F602FB0CFC16EB14
:1018D000074645EB174516EB0C4645EB1C42121923
:1018E00051F1000148BF7047B619524141EB010167
:1018F000A3F1010370474FEA14454FEA114724EA68
:10190000054621EA074C05FB07F106FB07F70CFB30
:1019100006F24FF0000605FB0CFC12EB074241EB10
:10192000174112EB0C4251EB1C4148BF7047921813
:1019300041EB0101A3F10103704700001CB50A4807
:10194000006840F04000084908600220032100239D
:101950000122CDE900108102044800F0A4F9002022
:10196000034908601CBD00003038024000180240E6
:10197000AC02434200BFFEE712490A780978491CCD
:10198000104B1970104988540978552903D000214B
:101990001A46117070470B4909780B2900DAF9E7EC
:1019A00009494978532907D10849074A921C136805
:1019B0000B6052684A6000BF00BF0021014A1170ED
:1019C00000BFE7E72C000020560400202400002080
:1019D0007047000030B10749096841F48061054A49
:1019E000116005E00349096821F48061014A116032
:1019F00070470000003C024070B504460A460026CD
:101A0000092502B909E0012A01D1160205E0022ADE
:101A100001D1160201E04FF4407600F09FF8054630
:101A2000092D28D11548006820F44070134908603A
:101A300008460068304308600846006820F0F80057
:101A400008600846006844F0020108430B4908603A
:101A50000846006840F48030086000F07FF80546D2
:101A60000648006820F00200044908600846006843
:101A700020F0F8000860284670BD0000103C0240CD
:101A800009201349096801F48031B1F5803F01D183
:101A900001201CE00E49096801F0100109B106207F
:101AA00015E00B49096801F4807109B102200EE0CC
:101AB0000749096801F0EF0109B1072007E004496F
:101AC000096801F0020109B1082000E0092070470F
:101AD0000C3C02400348006840F0004001490860A7
:101AE00070470000103C024030B502460C46092504
:101AF00000F034F80546092D19D10E48006820F48D
:101B000040700C4908600846006840F400700860A6
:101B10000846006840F001000860146000F01EF8FC
:101B200005460448006820F0010002490860284684
:101B300030BD0000103C02400548006800F0004045
:101B400028B1044802490C3908600348086070470E
:101B5000103C024023016745AB89EFCD08B5092051
:101B60000090FFF78DFF009002E0FFF789FF0090E3
:101B70009DF800000128F8D09DF8000008BD30B5A0
:101B8000CC1000F1200353F824304C07E50E0F244D
:101B9000AC40A343CD1000F1200444F82530CC1014
:101BA00000F1200353F824304C07E40E02FA04F449
:101BB0002343CD1000F1200444F8253030BDF0B5AA
:101BC0000A4600210023002400BF3DE0012505FA5C
:101BD00001F3156805EA03049C4234D105684F00FF
:101BE0000326BE40B543056015794E00B540066832
:101BF000354305601579012D02D01579022D16D1D6
:101C000085684F000326BE40B543856055794E0078
:101C1000B540866835438560456801268E40B543EA
:101C20004560456896798E40B6B235434560C568D3
:101C30004F000326BE40B543C560D5794E00B54080
:101C4000C6683543C560491C1029BFD3F0BDF0B547
:101C5000002300244D07ED0E02FA05F3CE1000F12B
:101C6000200555F826504E07F70E0F26BE40B54307
:101C7000CF1000F1200646F82750CE1000F12005C5
:101C800055F8265045EA0304CE1000F1200545F82A
:101C90002640F0BD0246002013690B400BB1012025
:101CA00000E0002070472DE9F0470C46DDE90867A9
:101CB000002100258C4600BF60E04FF0010808FAC3
:101CC00001F504EA050CAC4557D1D0F800804FEA85
:101CD000410A4FF0030909FA0AF928EA0908C0F88D
:101CE0000080D0F800804FEA410902FA09F948EA79
:101CF0000908C0F80080012A01D0022A27D1D0F8B3
:101D000008804FEA410A4FF0030909FA0AF928EA64
:101D10000908C0F80880D0F808804FEA410906FA9F
:101D200009F948EA0908C0F80880D0F804904FF093
:101D3000010808FA01F829EA0809C0F80490D0F867
:101D4000048003FA01F948EA0908C0F80480D0F8D1
:101D50000C804FEA410A4FF0030909FA0AF928EA10
:101D60000908C0F80C80D0F80C804FEA410907FA46
:101D700009F948EA0908C0F80C80491C10299CD3CD
:101D8000BDE8F0870183704770B50F2630E0012071
:101D90001C4908600A2005F085FA1BA005F0ACFF7D
:101DA00000250AE00A2005F07DFA1A48008800F4B0
:101DB000004000B103E0681CC5B2142DF2DB00BF87
:101DC0000020104908601348008800F4004078B1F2
:101DD0001048047800200F4908800D2C08D10E48C7
:101DE00000782B2804D10C4880793038C4B204E044
:101DF0003000A6F10101CEB2C9D100BF06B9FF245F
:101E0000204670BDA002434241542B524F4C453FE7
:101E10000D0A000030000020001000207CB50F26C5
:101E200001250121402004F093FC80200090002037
:101E30008DF8040003208DF8050001208DF80700BF
:101E400069462F48FFF7BBFE2802009001208DF85D
:101E5000040000208DF8060003208DF80500012005
:101E60008DF8070069462648FFF7A9FE2902244895
:101E7000FFF788FF4FF4165005F0BCFF4FF4967043
:101E800005F010FA32E001201E4908600A2005F032
:101E900009FA1DA005F030FF00201D49C1F8A0027D
:101EA00000240AE01B48008800F4004000B106E06E
:101EB000052005F0F7F9601CC4B20A2CF2DB00BF64
:101EC0001448008800F4004080B1124805780020D2
:101ED00010490880042D09D10F4800784F2805D1FA
:101EE0000D4840784B2801D1002504E03000A6F1D0
:101EF0000101CEB2C7D100BF06B9012528467CBD7D
:101F000000180240A002434241540D0A00000000A4
:101F10000000434230000020E006002010B50424F9
:101F20000EA005F0E9FE4FF4C87005F0BBF911A052
:101F300005F0E2FE4FF4967005F0B4F9FFF724FFC8
:101F400004464FF4967005F0ADF90CB9002010BDB1
:101F5000012C01D10120FAE70420F8E741542B4E6F
:101F6000414D453D49415020544553542042540D64
:101F70000A00000041542B524F4C453D300D0A00E1
:101F80001CB50C48006850B10BA010210B467822FC
:101F9000CDE90010F0211E2004F0A8FA09E00AA003
:101FA00010210B467822CDE90010F0211E2004F00C
:101FB0009DFA1CBD1C0243425354413A436F6E6E5E
:101FC00065637465642000005354413A4469736347
:101FD0006F6E6E656374000000BFFEE71CB50121E3
:101FE000422004F0B5FB4FF42440009000208DF80F
:101FF000040003208DF8050001208DF807006946D4
:102000000648FFF7DCFD0820009001208DF807004E
:1020100069460348FFF7D3FD1CBD000000180240CD
:102020000004024010B5044614B101202F49087085
:102030002E48007800283BD04FF480612C48FFF7F1
:1020400029FE80B14FF400512948FFF723FE50B11B
:102050004FF400412648FFF71DFE20B10821254816
:10206000FFF718FE20BB0A2005F01CF900201F49CD
:1020700008704FF480611E48FFF70CFE08B901207C
:1020800010BD4FF400511A48FFF704FE08B90220B2
:10209000F6E74FF400411648FFF7FCFD08B90320AE
:1020A000EEE708211348FFF7F5FDE0B90420E7E764
:1020B0004FF480610E48FFF7EDFD012813D1410375
:1020C0000B48FFF7E7FD01280DD1C1030848FFF7D2
:1020D000E1FD012807D108210648FFF7DBFD0128B3
:1020E00001D1024908700020CAE700002D0000203D
:1020F000001802400004024070B50446002617484C
:102100000588408845431548808846F60401884282
:1021100016D112488079012812D100200F49887108
:102120002A2048812B2088810021084604F076F877
:1021300001200A4988712B2048812A20888103E0E8
:102140000021084604F06AF804F07AFA002602E05A
:1021500003480480761CAE42FAD370BD48040020C8
:102160008000006C10B50446002C66D16C49887163
:10217000F02008804FF4A07048800846808849F21B
:10218000413188420BD06648808846F60401884277
:1021900005D06348808845F2103188421AD12C203E
:1021A0005F4908812A2048812B2088810846808841
:1021B00046F60401884205D05948808845F210311E
:1021C000884206D14FF4A070554908804FF4F07052
:1021D0004880A1E05248808845F21051884210D1D1
:1021E0004FF430504E4908814FF4285048814FF445
:1021F0002C5088814FF4F07008804FF4487048806C
:102200008AE04748808841F6631188420DD12C202E
:10221000434908812B2048812A2088814FF4F0709F
:1022200008804FF44870488076E022203C490881BD
:1022300020204881212088816EE001203849887162
:102240004FF4A0700880F02048800846808849F24A
:102250004131884205D03248808845F210318842A9
:1022600007D12C202E4908812A2048812B208881E3
:102270003FE02B48808846F60401884207D12C2095
:10228000274908812B2048812A20888131E0244871
:10229000808845F21051884210D14FF430502049C7
:1022A00008814FF4285048814FF42C5088814FF416
:1022B000487008804FF4F07048801AE01848808811
:1022C00041F6631188420DD12C20154908812A203E
:1022D00048812B2088814FF4487008804FF4F070BB
:1022E000488006E022200E490881212048812020D4
:1022F00088810B48808846F60401884205D008484A
:10230000808845F21031884206D14FF4F0700449BC
:1023100008804FF4A0704880002003F009FE10BD33
:102320004804002070B504460D4616465B48808878
:1023300049F24131884205D05848808845F2103131
:10234000884214D15549488904F06EF9201204F0EE
:102350005FF9E0B204F05CF95049888904F064F94F
:10236000281204F055F9E8B204F052F98CE04B4819
:10237000808845F21051884220D14849488904F0AC
:1023800053F9201204F044F944494989491C88B2A0
:1023900004F04AF9E0B204F03BF94049888904F0BE
:1023A00043F9281204F034F93C498989491C88B260
:1023B00004F03AF9E8B204F02BF965E03748808878
:1023C00041F66311884228D13448807920B93348D6
:1023D0000088401E001B84B23049488904F024F96B
:1023E000201204F015F9E0B204F012F9201204F002
:1023F0000FF9E0B204F00CF92849888904F014F9C7
:10240000281204F005F9E8B204F002F9281204F0E9
:10241000FFF8E8B204F0FCF836E02048808846F681
:10242000040188421DD11D488079012804D11B4830
:102430000088401E001B84B21849488904F0F4F853
:10244000201204F0E5F8E0B204F0E2F813498889BC
:1024500004F0EAF8281204F0DBF8E8B204F0D8F847
:1024600012E00E488079012804D10C480088401EF3
:10247000001B84B209494889214604F0EBF807495A
:102480008889294604F0E6F8044800890449088050
:102490004FF0D840A0F8806070BD000048040020D4
:1024A0007E00006C2DE9FC4F05460E461746984607
:1024B000DDF82C90002001902748808846F6040122
:1024C000884229D124488079012825D1AB46354658
:1024D00021480088C01B401E86B247461E4800881F
:1024E000A0EB0B00401E1FFA80F800201A498871EB
:1024F0002A2048812B20888143463A463146284687
:10250000CDF80090FFF7CEFF0120134988712B20F2
:1025100048812A2088811DE0781B401C80B20190F0
:10252000344615E02146284603F078FE04F088F88A
:102530004FF0000A07E04FF0D840A0F880900AF171
:1025400001001FFA80FA01988245F4DB601C84B216
:102550004445E7DDBDE8FC8F480400201CB5FE487B
:10256000006840F07800FC4908600846006840F0C8
:1025700002000860F8480830006840F00100F649A1
:10258000083108600120022100230246CDE9001035
:102590004103F248FFF787FB0120032100230222B9
:1025A000CDE900104CF23371ED48FFF77CFB0120C0
:1025B000032100230222CDE900104FF68071E94883
:1025C000FFF771FB0120032100230222CDE9001057
:1025D0000103E248FFF767FB0120032100230222E9
:1025E000CDE900100103E048FFF75DFB0C2200215C
:1025F000DB48FFF7C4FA0C220121D948FFF7BFFAE4
:102600000C220421D648FFF7BAFA0C220521D4483F
:10261000FFF7B5FA0C220821D148FFF7B0FA0C22D7
:102620000921CF48FFF7ABFA0C220A21CC48FFF76B
:10263000A6FA0C220E21CA48FFF7A1FA0C220F219C
:10264000C748FFF79CFA0C220721C648FFF797FA04
:102650000C220821C348FFF792FA0C220921C14835
:10266000FFF78DFA0C220A21BE48FFF788FA0C22E8
:102670000B21BC48FFF783FA0C221146B948FFF73B
:102680007EFA0C220D21B748FFF779FA0C220E21B1
:10269000B448FFF774FA0C220F21B248FFF76FFA23
:1026A0000C221146AD48FFF76AFA0C221146AE48DB
:1026B000FFF765FA00204FF020418861C861AB49FF
:1026C00008604FF02040806940F480504FF0204176
:1026D00088610846806940F48040886108468069C6
:1026E00040F0100088610846C069C8610846C069AA
:1026F00040F00F00C8610846C06940F47050C861DE
:102700009A480068C1F81C010846D0F81C0140F046
:102710000900C1F81C010846D0F81C0140F4006013
:10272000C1F81C010846806940F001008861322030
:1027300004F0B8FD0121002003F08CFF322004F0EA
:10274000B1FD002003F0B8FB8949888008468088E5
:10275000FF280ADB084680884FF6FF71884204D0C4
:1027600083488088B0F5134F7ED1D32003F05CFFFF
:1027700003F098FB7E49888003F094FB7C498880B5
:1027800003F090FB7A498880084680884FF6FF71F5
:1027900001EA00207649888003F084FB7449898827
:1027A0000843734988800846808849F2413188424D
:1027B0005AD0BF2003F038FF03F074FB6C498880C7
:1027C00003F070FB6A49888003F06CFB68498880DD
:1027D00003F068FB66498880084680884FF6FF71E1
:1027E00001EA00206249888003F05CFB6049898827
:1027F00008435F4988800846808846F6040188427D
:102800007AD0D42003F010FF03F04CFB58498880A5
:1028100003F048FB5649888003F044FB5449888004
:10282000084680884FF6FF7101EA002050498880F1
:1028300003F038FB4E49898808434D498880084693
:10284000808845F21031884256D04FF45A4003F048
:10285000EBFE03F027FB464988804FF45B4003F012
:10286000E3FE03F01FFB00E046E041498880084694
:1028700080884FF6FF7101EA00203D4988804FF4BF
:102880005C4003F0D1FE03F00DFB39498988084311
:102890003749888008468088B0F5004F02D145F25C
:1028A000105088803248808845F21051884223D0E9
:1028B000A12003F0B9FE03F0F5FA2D49888003F05A
:1028C000F1FA2B498880084680884FF6FF7101EAAB
:1028D00000202749888003F0E5FA254989880843C4
:1028E000234988800846808845F26171884203D177
:1028F00041F663101E4988801D48808849F24131A5
:10290000884211D01A48808845F2103188420BD095
:102910001748808845F21051884205D014488088B5
:1029200041F6631188422CD11048006820F00F0056
:102930004FF02041C1F81C010846D0F81C0120F4DA
:102940007060C1F81C010846D0F81C0140F003007B
:10295000C1F81C0108460DE0303802400014024066
:10296000000C024000100240001802401C0100A0B0
:1029700048040020D0F81C0140F40070C1F81C018C
:1029800028E0FE48808846F60401884205D0FB48CE
:1029900080884CF2055188421CD1F948006820F02B
:1029A0000F004FF02041C1F81C010846D0F81C016F
:1029B00020F47060C1F81C010846D0F81C0140F0FA
:1029C0000A00C1F81C010846D0F81C0140F4406020
:1029D000C1F81C01E9488188EAA0FDF7B3FCE7488B
:1029E000808849F2413188427ED1CF2003F01CFE1D
:1029F000002003F00DFEC12003F00AFE302003F09A
:102A000007FEED2003F010FE642003F001FE03201A
:102A100003F0FEFD122003F0FBFD812003F0F8FD22
:102A2000E82003F001FE852003F0F2FD102003F002
:102A3000EFFD7A2003F0ECFDCB2003F0F5FD39200B
:102A400003F0E6FD2C2003F0E3FD002003F0E0FDA1
:102A5000342003F0DDFD022003F0DAFDF72003F05F
:102A6000E3FD202003F0D4FDEA2003F0DDFD00208B
:102A700003F0CEFD002003F0CBFDC02003F0D4FD19
:102A80001B2003F0C5FDC12003F0CEFD012003F0A3
:102A9000BFFDC52003F0C8FD302003F0B9FD302094
:102AA00003F0B6FDC72003F0BFFDB72003F0B0FD73
:102AB000362003F0B9FD482003F0AAFD3A2003F0C8
:102AC000B3FD552003F0A4FDB12003F0ADFD0020BF
:102AD00003F09EFD1A2003F09BFDB62003F0A4FD39
:102AE0000A2003F095FD00E097E0A22003F090FD9E
:102AF000F22003F099FD002003F08AFD262003F068
:102B000093FD012003F084FDE02003F08DFD0F20F4
:102B100003F07EFD2A2003F07BFD282003F078FDE2
:102B2000082003F075FD0E2003F072FD082003F06D
:102B30006FFD542003F06CFDA92003F069FD4320D4
:102B400003F066FD0A2003F063FD0F2003F060FD33
:102B5000002003F05DFD002003F05AFD002003F08B
:102B600057FD002003F054FDE12003F05DFD00203F
:102B700003F04EFD152003F04BFD172003F048FD38
:102B8000072003F045FD112003F042FD062003F06D
:102B90003FFD2B2003F03CFD562003F039FD3C2087
:102BA00003F036FD052003F033FD102003F030FD67
:102BB0000F2003F02DFD3F2003F02AFD3F2003F0FE
:102BC00027FD0F2003F024FD2B2003F02DFD002016
:102BD00003F01EFD002003F01BFD012003F018FD93
:102BE0003F2003F015FD2A2003F01EFD002003F016
:102BF0000FFD002003F00CFD002003F009FDEF2085
:102C000003F006FD112003F00FFD782004F04AFBCD
:102C1000292003F009FD03F029B95848808846F6B9
:102C2000040188427ED1112003F0FEFC142004F040
:102C300039FBD02003F0F8FC072003F0E9FC422028
:102C400003F0E6FC1D2003F0E3FCD12003F0ECFCD4
:102C5000002003F0DDFC1A2003F0DAFC092003F069
:102C6000D7FCD22003F0E0FC012003F0D1FC2220AD
:102C700003F0CEFCC02003F0D7FC102003F0C8FC0A
:102C80003B2003F0C5FC002003F0C2FC022003F04F
:102C9000BFFC112003F0BCFCC52003F0C5FC0320E1
:102CA00003F0B6FCC82003F0BFFC002003F0B0FC2A
:102CB000252003F0ADFC212003F0AAFC052003F041
:102CC000A7FC002003F0A4FC0A2003F0A1FC65206F
:102CD00003F09EFC252003F09BFC772003F098FC7A
:102CE000502003F095FC0F2003F092FC002003F02D
:102CF0008FFCF82003F098FC012003F089FCFE20F3
:102D000003F092FC002003F083FC022003F080FC1F
:102D1000202003F089FC362003F086FC082003F015
:102D200077FC00E036E03A2003F07EFC552003F00B
:102D30006FFC2B2003F078FC002003F069FC0020DE
:102D400003F066FC012003F063FC3F2003F060FC0D
:102D50002A2003F069FC002003F05AFC002003F055
:102D600057FC012003F054FCDF2003F051FC7820D5
:102D700004F098FA292003F057FC4CE7480400209F
:102D80001C0100A0204C43442049443A25780D0AF8
:102D900000000000FE48808845F21031884240F073
:102DA0007C87ED2003F040FC012003F031FCFE2085
:102DB00003F02EFCEE2003F037FCDE2003F028FCAD
:102DC000212003F025FCF12003F02EFC012003F06C
:102DD0001FFCDF2003F028FC102003F019FCC420A6
:102DE00003F022FC8F2003F013FCC62003F01CFC30
:102DF000002003F00DFCE22003F00AFCE22003F0C7
:102E000007FCE22003F004FCBF2003F00DFCAA2025
:102E100003F0FEFBB02003F007FC0D2003F0F8FBED
:102E2000002003F0F5FB0D2003F0F2FB002003F07F
:102E3000EFFB112003F0ECFB002003F0E9FB19206D
:102E400003F0E6FB002003F0E3FB212003F0E0FBAE
:102E5000002003F0DDFB2D2003F0DAFB002003F05F
:102E6000D7FB3D2003F0D4FB002003F0D1FB5D2015
:102E700003F0CEFB002003F0CBFB5D2003F0C8FB8A
:102E8000002003F0C5FBB12003F0CEFB802003F04F
:102E9000BFFB002003F0BCFB8B2003F0B9FB00203C
:102EA00003F0B6FB962003F0B3FB002003F0B0FB69
:102EB000B22003F0B9FB002003F0AAFB002003F0CE
:102EC000A7FB022003F0A4FB002003F0A1FB0320DA
:102ED00003F09EFB002003F09BFBB32003F0A4FB58
:102EE000002003F095FB002003F092FB002003F08C
:102EF0008FFB002003F08CFB002003F089FB0020F7
:102F000003F086FB002003F083FB002003F080FB2E
:102F1000002003F07DFB002003F07AFB002003F08B
:102F200077FB002003F074FB002003F071FB00200E
:102F300003F06EFB002003F06BFB002003F068FB46
:102F4000002003F065FB002003F062FB002003F08B
:102F50005FFB002003F05CFB002003F059FB002026
:102F600003F056FB002003F053FB002003F050FB5E
:102F7000B42003F059FB8B2003F04AFB002003F040
:102F800047FB962003F044FB002003F041FBA12007
:102F900003F03EFB002003F03BFBB52003F044FBB5
:102FA000022003F035FB002003F032FB032003F086
:102FB0002FFB002003F02CFB042003F029FB002052
:102FC00003F026FBB62003F02FFB002003F020FBCC
:102FD000002003F01DFBB72003F026FB002003F0C8
:102FE00017FB002003F014FB3F2003F011FB00202F
:102FF00003F00EFB5E2003F00BFB002003F008FB48
:10300000642003F005FB002003F002FB8C2003F09A
:10301000FFFA002003F0FCFAAC2003F0F9FA0020DC
:1030200003F0F6FADC2003F0F3FA002003F0F0FAE4
:10303000702003F0EDFA002003F0EAFA902003F08C
:10304000E7FA002003F0E4FAEB2003F0E1FA0020B5
:1030500003F0DEFADC2003F0DBFA002003F0D8FAFC
:10306000B82003F0E1FA002003F0D2FA002003F0C8
:10307000CFFA002003F0CCFA002003F0C9FA0020B8
:1030800003F0C6FA002003F0C3FA002003F0C0FAF0
:10309000002003F0BDFABA2003F0C6FA242003F0A2
:1030A000B7FA002003F0B4FA002003F0B1FA0020D0
:1030B00003F0AEFAC12003F0B7FA202003F0A8FA1B
:1030C000002003F0A5FA542003F0A2FA002003F038
:1030D0009FFAFF2003F09CFA002003F099FAC22027
:1030E00003F0A2FA0A2003F093FA002003F090FA0A
:1030F000042003F08DFA002003F08AFAC32003F0C5
:1031000093FA3C2003F084FA002003F081FA3A207D
:1031100003F07EFA002003F07BFA392003F078FAFE
:10312000002003F075FA372003F072FA002003F054
:103130006FFA3C2003F06CFA002003F069FA3620A5
:1031400003F066FA002003F063FA322003F060FA1D
:10315000002003F05DFA2F2003F05AFA002003F05C
:1031600057FA2C2003F054FA002003F051FA2920DA
:1031700003F04EFA002003F04BFA262003F048FA41
:10318000002003F045FA242003F042FA002001E079
:103190004804002003F03CFA242003F039FA002010
:1031A00003F036FA232003F033FA002003F030FA5C
:1031B0003C2003F02DFA002003F02AFA362003F019
:1031C00027FA002003F024FA322003F021FA00202D
:1031D00003F01EFA2F2003F01BFA002003F018FA68
:1031E0002C2003F015FA002003F012FA292003F036
:1031F0000FFA002003F00CFA262003F009FA002051
:1032000003F006FA242003F003FA002003F000FA8A
:10321000242003F0FDF9002003F0FAF9232003F045
:10322000F7F9002003F0F4F9C42003F0FDF962205F
:1032300003F0EEF9002003F0EBF9052003F0E8F9C4
:10324000002003F0E5F9842003F0E2F9002003F008
:10325000DFF9F02003F0DCF9002003F0D9F91820A1
:1032600003F0D6F9002003F0D3F9A42003F0D0F93D
:10327000002003F0CDF9182003F0CAF9002003F074
:10328000C7F9502003F0C4F9002003F0C1F90C2065
:1032900003F0BEF9002003F0BBF9172003F0B8F9E2
:1032A000002003F0B5F9952003F0B2F9002003F0F7
:1032B000AFF9F32003F0ACF9002003F0A9F9E62000
:1032C00003F0A6F9002003F0A3F9C52003F0ACF940
:1032D000322003F09DF9002003F09AF9442003F016
:1032E00097F9002003F094F9652003F091F900208C
:1032F00003F08EF9762003F08BF9002003F088F9B3
:10330000882003F085F9002003F082F9C62003F03D
:103310008BF9202003F07CF9002003F079F91720C5
:1033200003F076F9002003F073F9012003F070F93F
:10333000002003F06DF9C72003F076F9002003F0B8
:1033400067F9002003F064F9002003F061F9002020
:1033500003F05EF9C82003F067F9002003F058F984
:10336000002003F055F9002003F052F9002003F08B
:103370004FF9C92003F058F9002003F049F9002063
:1033800003F046F9002003F043F9002003F040F970
:10339000002003F03DF9002003F03AF9002003F08B
:1033A00037F9002003F034F9002003F031F9002050
:1033B00003F02EF9002003F02BF9002003F028F988
:1033C000002003F025F9002003F022F9002003F08B
:1033D0001FF9002003F01CF9E02003F025F9162066
:1033E00003F016F9002003F013F91C2003F010F984
:1033F000002003F00DF9212003F00AF9002003F06A
:1034000007F9362003F004F9002003F001F9462003
:1034100003F0FEF8002003F0FBF8522003F0F8F868
:10342000002003F0F5F8642003F0F2F8002003F028
:10343000EFF87A2003F0ECF8002003F0E9F88B2095
:1034400003F0E6F8002003F0E3F8992003F0E0F839
:10345000002003F0DDF8A82003F0DAF8002003F0E4
:10346000D7F8B92003F0D4F8002003F0D1F8C42035
:1034700003F0CEF8002003F0CBF8CA2003F0C8F820
:10348000002003F0C5F8D22003F0C2F8002003F0BA
:10349000BFF8D92003F0BCF8002003F0B9F8E02011
:1034A00003F0B6F8002003F0B3F8F32003F0B0F80F
:1034B000002003F0ADF8E12003F0B6F8162003F089
:1034C000A7F8002003F0A4F81C2003F0A1F80020C6
:1034D00003F09EF8222003F09BF8002003F098F8F8
:1034E000362003F095F8002003F092F8452003F011
:1034F0008FF8002003F08CF8522003F089F80020A8
:1035000003F086F8642003F083F8002003F080F8CD
:103510007A2003F07DF8002003F07AF88B2003F086
:1035200077F8002003F074F8992003F071F8002078
:1035300003F06EF8A82003F06BF8002003F068F8A1
:10354000B92003F065F8002003F062F8C42003F00E
:103550005FF8002003F05CF8CA2003F059F800205F
:1035600003F056F8D22003F053F8002003F050F88F
:10357000D82003F04DF8002003F04AF8E02003F0D3
:1035800047F8002003F044F8F32003F041F800204E
:1035900003F03EF8E22003F047F8052003F038F886
:1035A000002003F035F80B2003F032F8002003F080
:1035B0002FF81B2003F02CF8002003F029F834200A
:1035C00003F026F8002003F023F8442003F020F84D
:1035D000002003F01DF84F2003F01AF8002003F03C
:1035E00017F8612003F014F8002003F011F8792097
:1035F00003F00EF8002003F00BF8882003F008F821
:10360000002003F005F8972003F002F8002002F0F4
:10361000FFFFA62002F0FCFF002002F0F9FFB72018
:1036200002F0F6FF002002F0F3FFC22002F0F0FFEC
:10363000002002F0EDFFC72002F0EAFF002002F0B8
:10364000E7FFD12002F0E4FF002002F0E1FFD620E6
:1036500002F0DEFF002002F0DBFFDD2002F0D8FFE9
:10366000002002F0D5FFF32002F0D2FF002002F08C
:10367000CFFFE32002F0D8FF052002F0C9FF0020B1
:1036800002F0C6FF0A2002F0C3FF002002F0C0FFD4
:103690001C2002F0BDFF002002F0BAFF332002F030
:1036A000B7FF002002F0B4FF442002F0B1FF002079
:1036B00002F0AEFF502002F0ABFF002002F0A8FFA6
:1036C000622002F0A5FF002002F0A2FF782002F0A5
:1036D0009FFF002002F09CFF882002F099FF00204D
:1036E00002F096FF972002F093FF002002F090FF77
:1036F000A62002F08DFF002002F08AFFB72002F022
:1037000087FF002002F084FFC22002F081FF00202A
:1037100002F07EFFC72002F07BFF002002F078FF5E
:10372000D12002F075FF002002F072FFD52002F0D8
:103730006FFF002002F06CFFDD2002F069FF002027
:1037400002F066FFF32002F063FF002002F060FF4A
:10375000E42002F069FF012002F05AFF002002F08D
:1037600057FF012002F054FF002002F051FF022019
:1037700002F04EFF002002F04BFF2A2002F048FF2B
:10378000002002F045FF3C2002F042FF002002F042
:103790003FFF4B2002F03CFF002002F039FF5D208C
:1037A00002F036FF002002F033FF742002F030FFF9
:1037B000002002F02DFF842002F02AFF002002F0FA
:1037C00027FF932002F024FF002002F021FFA22017
:1037D00002F01EFF002002F01BFFB32002F018FFD2
:1037E000002002F015FFBE2002F012FF002002F0C0
:1037F0000FFFC42002F00CFF002002F009FFCD20D3
:1038000002F006FF002002F003FFD32002F000FFC9
:10381000002002F0FDFEDD2002F0FAFE002002F0A2
:10382000F7FEF32002F0F4FE002002F0F1FEE520A6
:1038300002F0FAFE002002F0EBFE002002F0E8FEAB
:10384000002002F0E5FE002002F0E2FE022002F07D
:10385000DFFE002002F0DCFE292002F0D9FE00206D
:1038600002F0D6FE3C2002F0D3FE002002F0D0FE93
:103870004B2002F0CDFE002002F0CAFE5D2002F0D7
:10388000C7FE002002F0C4FE742002F0C1FE00203A
:1038900002F0BEFE842002F0BBFE002002F0B8FE63
:1038A000932002F0B5FE002002F0B2FEA22002F04A
:1038B000AFFE002002F0ACFEB32002F0A9FE002013
:1038C00002F0A6FEBE2002F0A3FE002002F0A0FE41
:1038D000C42002F09DFE002002F09AFECD2002F0EE
:1038E00097FE002002F094FED32002F091FE00200B
:1038F00002F08EFEDC2002F08BFE002002F088FE3B
:10390000F32002F085FE002002F082FEE62002F0A5
:103910008BFE112002F07CFE002002F079FE3420A4
:1039200002F076FE002002F073FE562002F070FED8
:10393000002002F06DFE762002F06AFE002002F008
:1039400067FE772002F064FE002002F061FE662030
:1039500002F05EFE002002F05BFE882002F058FEBE
:10396000002002F055FE992002F052FE002002F0E5
:103970004FFEBB2002F04CFE002002F049FE9920D1
:1039800002F046FE002002F043FE662002F040FEF8
:10399000002002F03DFE552002F03AFE002002F029
:1039A00037FE552002F034FE002002F031FE4520A3
:1039B00002F02EFE002002F02BFE432002F028FE33
:1039C000002002F025FE442002F022FE002002F03A
:1039D0001FFEE72002F028FE322002F019FE002030
:1039E00002F016FE552002F013FE002002F010FE39
:1039F000762002F00DFE002002F00AFE662002F0A2
:103A000007FE002002F004FE672002F001FE002005
:103A100002F0FEFD672002F0FBFD002002F0F8FD41
:103A2000872002F0F5FD002002F0F2FD992002F05F
:103A3000EFFD002002F0ECFDBB2002F0E9FD0020CC
:103A400002F0E6FD992002F0E3FD002002F0E0FD27
:103A5000772002F0DDFD002002F0DAFD442002F0C4
:103A6000D7FD002002F0D4FD562002F0D1FD002049
:103A700002F0CEFD232002F0CBFD002002F0C8FDB5
:103A8000332002F0C5FD002002F0C2FD452002F007
:103A9000BFFD002002F0BCFDE82002F0C5FD0020C3
:103AA00002F0B6FD002002F0B3FD992002F0B0FD57
:103AB000002002F0ADFD872002F0AAFD002002F0F8
:103AC000A7FD882002F0A4FD002002F0A1FD7720D0
:103AD00002F09EFD002002F09BFD662002F098FDA2
:103AE000002002F095FD882002F092FD002002F0F7
:103AF0008FFDAA2002F08CFD002002F089FDBB2082
:103B000002F086FD002002F083FD992002F080FD86
:103B1000002002F07DFD662002F07AFD002002F018
:103B200077FD552002F074FD002002F071FD552054
:103B300002F06EFD002002F06BFD442002F068FDF3
:103B4000002002F065FD442002F062FD002002F03A
:103B50005FFD552002F05CFD002002F059FDE920D8
:103B600002F062FDAA2002F053FD002002F050FD99
:103B7000002002F04DFD002002F04AFD002002F07E
:103B800053FDAA2002F044FDCF2002F04DFD00209D
:103B900002F03EFD002002F03BFD002002F038FD67
:103BA000002002F035FD002002F032FD002002F07E
:103BB0002FFD002002F02CFD002002F029FD002046
:103BC00002F026FD002002F023FD002002F020FD7F
:103BD000002002F01DFD002002F01AFD002002F07E
:103BE00017FD002002F014FD002002F011FD00205E
:103BF00002F00EFDF02002F017FD002002F008FD9B
:103C0000502002F005FD002002F002FD002002F02D
:103C1000FFFC002002F0FCFCF32002F005FD002078
:103C200002F0F6FCF92002F0FFFC062002F0F0FCA6
:103C3000102002F0EDFC292002F0EAFC002002F046
:103C4000E7FC3A2002F0F0FC552002F0E1FC1120E4
:103C500002F0EAFC642003F025FB292002F0E4FCDA
:103C6000352002F0E1FC002002F0D2FC512002F0ED
:103C7000DBFCFF2002F0CCFC532002F0D5FC2C2012
:103C800002F0C6FC552002F0CFFC822002F0C0FCFE
:103C90002C2002F0C9FC02F0E9B8FE48808845F209
:103CA000105188427ED155214FF4704002F0D2FC71
:103CB000AA214FF2010002F0CDFC52214FF2020086
:103CC00002F0C8FC08214FF2030002F0C3FC0121FE
:103CD0004FF2040002F0BEFC0D214FF4304002F020
:103CE000B9FC0D214BF2010002F0B4FC0D214BF2A6
:103CF000020002F0AFFC34214FF4364002F0AAFC7F
:103D000034214BF2016002F0A5FC34214BF2026039
:103D100002F0A0FC0D214FF4314002F09BFC0D217C
:103D20004BF2011002F096FC0D214BF2021002F052
:103D300091FC34214FF4374002F08CFC34214BF2DB
:103D4000017002F087FC34214BF2027002F082FC19
:103D500000214FF4324002F07DFC00214BF20120A3
:103D600002F078FC00214BF2022002F073FC2421C7
:103D70004FF4384002F06EFC24214BF6010002F0B3
:103D800069FC24214BF6020002F064FC01214FF48F
:103D90003F4002F05FFC0F214FF4334002F05AFC29
:103DA0000F2100E0FEE34BF2013002F053FC0F2143
:103DB0004BF2023002F04EFC34214FF4394002F055
:103DC00049FC34214BF6011002F044FC34214BF63F
:103DD000021002F03FFC08214FF4354002F03AFC9B
:103DE00008214BF2015002F035FC08214BF2025041
:103DF00002F030FC03214FF4424002F02BFC24215E
:103E00004FF43A4002F026FC24214BF6012002F048
:103E100021FC24214BF6022002F01CFC00214FF46F
:103E20003C4002F017FC78214BF6014002F012FCF6
:103E300000214BF6024002F00DFC00214FF43D4002
:103E400002F008FC78214BF6015002F003FC00213F
:103E50004BF6025002F0FEFB00214FF43E4002F010
:103E6000F9FB64214BF6016002F0F4FB00214FF4F2
:103E7000514002F0EFFB33214DF2011002F0EAFB5A
:103E800000214DF2021002F0E5FB34214DF2031047
:103E900002F0E0FB00214DF2041002F0DBFB3A21BE
:103EA0004DF2051002F0D6FB00214DF2061002F093
:103EB000D1FB4A214DF2071002F0CCFB00214DF25C
:103EC000081002F0C7FB5C214DF2091002F0C2FBA2
:103ED00000214DF20A1002F0BDFB81214DF20B10C2
:103EE00002F0B8FB00214DF20C1002F0B3FBA6214A
:103EF0004DF20D1002F0AEFB00214DF20E1002F05B
:103F0000A9FBE5214DF20F1002F0A4FB01214DF2B7
:103F1000101002F09FFB13214DF2111002F09AFBDA
:103F200001214DF2121002F095FB54214DF21310B5
:103F300002F090FB01214DF2141002F08BFB822164
:103F40004DF2151002F086FB01214DF2161002F021
:103F500081FBCA214DF2171002F07CFB02214DF2C9
:103F6000181002F077FB00214DF2191002F072FBDD
:103F700002214DF21A1002F06DFB01214DF21B10CF
:103F800002F068FB02214DF21C1002F063FB3421A9
:103F90004DF21D1002F05EFB02214DF21E1002F0E8
:103FA00059FB67214DF21F1002F054FB02214DF224
:103FB000201002F04FFB84214DF2211002F04AFB49
:103FC00002214DF2221002F045FBA4214DF22310F4
:103FD00002F040FB02214DF2241002F03BFBB7211E
:103FE0004DF2251002F036FB02214DF2261002F0B0
:103FF00031FBCF214DF2271002F02CFB02214DF2B4
:10400000281002F027FBDE214DF2291002F022FBDE
:1040100002214DF22A1002F01DFBF2214DF22B106D
:1040200002F018FB02214DF22C1002F013FBFE21CE
:104030004DF22D1002F00EFB03214DF22E1002F076
:1040400009FB10214DF22F1002F004FB03214DF269
:10405000301002F0FFFA33214DF2311002F0FAFA7B
:1040600003214DF2321002F0F5FA6D214DF23310BA
:1040700002F0F0FA00214FF4524002F0EBFA332143
:104080004DF2012002F0E6FA00214DF2022002F08A
:10409000E1FA01E04804002034214DF2032002F04F
:1040A000D9FA00214DF2042002F0D4FA3A214DF25F
:1040B000052002F0CFFA00214DF2062002F0CAFAE4
:1040C0004A214DF2072002F0C5FA00214DF20820E6
:1040D00002F0C0FA5C214DF2092002F0BBFA002187
:1040E0004DF20A2002F0B6FA81214DF20B2002F0C7
:1040F000B1FA00214DF20C2002F0ACFAA6214DF2EB
:104100000D2002F0A7FA00214DF20E2002F0A2FAD3
:10411000E5214DF20F2002F09DFA01214DF2102011
:1041200002F098FA13214DF2112002F093FA0121C6
:104130004DF2122002F08EFA54214DF2132002F0BB
:1041400089FA01214DF2142002F084FA82214DF205
:10415000152002F07FFA01214DF2162002F07AFAC2
:10416000CA214DF2172002F075FA02214DF21820F3
:1041700002F070FA00214DF2192002F06BFA0221D0
:104180004DF21A2002F066FA01214DF21B2002F0D6
:1041900061FA02214DF21C2002F05CFA34214DF24A
:1041A0001D2002F057FA02214DF21E2002F052FAB1
:1041B00067214DF21F2002F04DFA02214DF220201E
:1041C00002F048FA84214DF2212002F043FA022144
:1041D0004DF2222002F03EFAA4214DF2232002F0FB
:1041E00039FA02214DF2242002F034FAB7214DF2BF
:1041F000252002F02FFA02214DF2262002F02AFAA1
:10420000CF214DF2272002F025FA02214DF228207D
:1042100002F020FADE214DF2292002F01BFA0221E1
:104220004DF22A2002F016FAF2214DF22B2002F074
:1042300011FA02214DF22C2002F00CFAFE214DF26F
:104240002D2002F007FA03214DF22E2002F002FA8F
:1042500010214DF22F2002F0FDF903214DF2302004
:1042600002F0F8F933214DF2312002F0F3F9032185
:104270004DF2322002F0EEF96D214DF2332002F0C2
:10428000E9F900214FF4534002F0E4F933214DF2F3
:10429000013002F0DFF900214DF2023002F0DAF9CC
:1042A00034214DF2033002F0D5F900214DF20430F3
:1042B00002F0D0F93A214DF2053002F0CBF900219D
:1042C0004DF2063002F0C6F94A214DF2073002F0F5
:1042D000C1F900214DF2083002F0BCF95C214DF229
:1042E000093002F0B7F900214DF20A3002F0B2F9BC
:1042F00081214DF20B3002F0ADF900214DF20C306E
:1043000002F0A8F9A6214DF20D3002F0A3F9002128
:104310004DF20E3002F09EF9E5214DF20F3002F021
:1043200099F901214DF2103002F094F913214DF268
:10433000113002F08FF901214DF2123002F08AF9AA
:1043400054214DF2133002F085F901214DF2143061
:1043500002F080F982214DF2153002F07BF9012143
:104360004DF2163002F076F9CA214DF2173002F004
:1043700071F902214DF2183002F06CF900214DF272
:10438000193002F067F902214DF21A3002F062F999
:1043900001214DF21B3002F05DF902214DF21C307B
:1043A00002F058F934214DF21D3002F053F9022188
:1043B0004DF21E3002F04EF967214DF21F3002F02F
:1043C00049F902214DF2203002F044F984214DF2E6
:1043D000213002F03FF902214DF2223002F03AF989
:1043E000A4214DF2233002F035F902214DF22430A0
:1043F00002F030F9B7214DF2253002F02BF90221FD
:104400004DF2263002F026F9CF214DF2273002F08E
:1044100021F902214DF2283002F01CF9DE214DF283
:10442000293002F017F902214DF22A3002F012F978
:10443000F2214DF22B3002F00DF902214DF22C3019
:1044400002F008F9FE214DF22D3002F003F90321AC
:104450004DF22E3002F0FEF810214DF22F3002F016
:10446000F9F803214DF2303002F0F4F833214DF227
:10447000313002F0EFF803214DF2323002F0EAF869
:104480006D214DF2333002F0E5F800214FF4544035
:1044900002F0E0F833214DF2014002F0DBF8002198
:1044A0004DF2024002F0D6F834214DF2034002F002
:1044B000D1F800214DF2044002F0CCF83A214DF23F
:1044C000054002F0C7F800214DF2064002F0C2F8A4
:1044D0004A214DF2074002F0BDF800214DF208409C
:1044E00002F0B8F85C214DF2094002F0B3F8002167
:1044F0004DF20A4002F0AEF881214DF20B4002F07D
:10450000A9F800214DF20C4002F0A4F8A6214DF2CA
:104510000D4002F09FF800214DF20E4002F09AF893
:10452000E5214DF20F4002F095F801214DF21040C7
:1045300002F090F813214DF2114002F08BF80121A6
:104540004DF2124002F086F854214DF2134002F071
:1045500081F801214DF2144002F07CF882214DF2E5
:10456000154002F077F801214DF2164002F072F882
:10457000CA214DF2174002F06DF802214DF21840A9
:1045800002F068F800214DF2194002F063F80221B0
:104590004DF21A4002F05EF801214DF21B4002F08C
:1045A00059F800E004E302214DF21C4002F052F8F9
:1045B00034214DF21D4002F04DF802214DF21E4013
:1045C00002F048F867214DF21F4002F043F8022143
:1045D0004DF2204002F03EF884214DF2214002F0DD
:1045E00039F802214DF2224002F034F8A4214DF2B4
:1045F000234002F02FF802214DF2244002F02AF865
:10460000B7214DF2254002F025F802214DF2264057
:1046100002F020F8CF214DF2274002F01BF80221D2
:104620004DF2284002F016F8DE214DF2294002F04A
:1046300011F802214DF22A4002F00CF8F2214DF25D
:104640002B4002F007F802214DF22C4002F002F854
:10465000FE214DF22D4001F0FDFF03214DF22E40D1
:1046600001F0F8FF10214DF22F4001F0F3FF03217C
:104670004DF2304001F0EEFF33214DF2314001F0B8
:10468000E9FF03214DF2324001F0E4FF6D214DF2CC
:10469000334001F0DFFF00214FF4554001F0DAFF15
:1046A00033214DF2015001F0D5FF00214DF20250AF
:1046B00001F0D0FF34214DF2035001F0CBFF002177
:1046C0004DF2045001F0C6FF3A214DF2055001F0C1
:1046D000C1FF00214DF2065001F0BCFF4A214DF20E
:1046E000075001F0B7FF00214DF2085001F0B2FF72
:1046F0005C214DF2095001F0ADFF00214DF20A504E
:1047000001F0A8FF81214DF20B5001F0A3FF002121
:104710004DF20C5001F09EFFA6214DF20D5001F01C
:1047200099FF00214DF20E5001F094FFE5214DF26A
:104730000F5001F08FFF01214DF2105001F08AFF60
:1047400013214DF2115001F085FF01214DF212505D
:1047500001F080FF54214DF2135001F07BFF012145
:104760004DF2145001F076FF82214DF2155001F008
:1047700071FF01214DF2165001F06CFFCA214DF27C
:10478000175001F067FF02214DF2185001F062FF4F
:1047900000214DF2195001F05DFF02214DF21A5037
:1047A00001F058FF01214DF21B5001F053FF02218F
:1047B0004DF21C5001F04EFF34214DF21D5001F01E
:1047C00049FF02214DF21E5001F044FF67214DF2D6
:1047D0001F5001F03FFF02214DF2205001F03AFF3F
:1047E00084214DF2215001F035FF02214DF222507B
:1047F00001F030FFA4214DF2235001F02BFF0221E4
:104800004DF2245001F026FFB7214DF2255001F062
:1048100021FF02214DF2265001F01CFFCF214DF265
:10482000275001F017FF02214DF2285001F012FF2E
:10483000DE214DF2295001F00DFF02214DF22A50E8
:1048400001F008FFF2214DF22B5001F003FF02218D
:104850004DF22C5001F0FEFEFE214DF22D5001F0E4
:10486000F9FE03214DF22E5001F0F4FE10214DF21D
:104870002F5001F0EFFE03214DF2305001F0EAFE1F
:1048800033214DF2315001F0E5FE03214DF232505B
:1048900001F0E0FE6D214DF2335001F0DBFE00210E
:1048A0004FF4564001F0D6FE33214DF2016001F085
:1048B000D1FE00214DF2026001F0CCFE34214DF218
:1048C000036001F0C7FE00214DF2046001F0C2FE5A
:1048D0003A214DF2056001F0BDFE00214DF2066067
:1048E00001F0B8FE4A214DF2076001F0B3FE00214D
:1048F0004DF2086001F0AEFE5C214DF2096001F05E
:10490000A9FE00214DF20A6001F0A4FE81214DF2C2
:104910000B6001F09FFE00214DF20C6001F09AFE49
:10492000A6214DF20D6001F095FE00214DF20E60C2
:1049300001F090FEE5214DF20F6001F08BFE0121A8
:104940004DF2106001F086FE13214DF2116001F06E
:1049500081FE01214DF2126001F07CFE54214DF2E6
:10496000136001F077FE01214DF2146001F072FE38
:1049700082214DF2156001F06DFE01214DF21660AD
:1049800001F068FECA214DF2176001F063FE0221BA
:104990004DF2186001F05EFE00214DF2196001F049
:1049A00059FE02214DF21A6001F054FE01214DF230
:1049B0001B6001F04FFE02214DF21C6001F04AFE27
:1049C00034214DF21D6001F045FE02214DF21E60C2
:1049D00001F040FE67214DF21F6001F03BFE022115
:1049E0004DF2206001F036FE84214DF2216001F08D
:1049F00031FE02214DF2226001F02CFEA4214DF285
:104A0000236001F027FE02214DF2246001F022FE16
:104A1000B7214DF2256001F01DFE02214DF2266006
:104A200001F018FECF214DF2276001F013FE0221A4
:104A30004DF2286001F00EFEDE214DF2296001F0FA
:104A400009FE02214DF22A6001F004FEF2214DF22E
:104A50002B6001F0FFFD02214DF22C6001F0FAFD08
:104A6000FE214DF22D6001F0F5FD03214DF22E6087
:104A700001F0F0FD10214DF22F6001F0EBFD03215C
:104A80004DF2306001F0E6FD33214DF2316001F06E
:104A9000E1FD03214DF2326001F0DCFD6D214DF2AC
:104AA000336001F0D7FD55214FF4704001F0D2FD85
:104AB000AA214FF2010001F0CDFD52214FF2020078
:104AC00001F0C8FD08214FF2030001F0C3FD0021F1
:104AD0004FF2040001F0BEFDCC214FF4314001F053
:104AE000B9FD00214BF2011001F0B4FD05214FF496
:104AF000364001F0AFFD70214FF4374001F0AAFDC0
:104B000070214BF2017001F0A5FD01214FF43840F6
:104B100001F0A0FD03214BF6010001F09BFD0321F4
:104B20004BF6020001F096FD03214BF6030001F065
:104B300091FD02214FF43C4001F08CFD00214BF629
:104B4000014001F087FD00214BF6024001F082FD9B
:104B5000D0214FF4494001F07DFD02214CF60110B7
:104B600001F078FD50214CF6021001F073FD502148
:104B70004CF6031001F06EFD50214CF6041001F0CC
:104B800069FD00214FF4545001F064FD55214FF4AC
:104B9000685001F05FFD4FF4885001F045FD78202A
:104BA00002F09CFB4FF4245001F03EFD01F05EB991
:104BB000FE48808849F2253188427DD147F6F001D0
:104BC000E52001F047FD4FF48071012001F042FD26
:104BD0004FF4E061022001F03DFD41F2300103207D
:104BE00001F038FD0021042001F034FD40F20221E3
:104BF000082001F02FFD0021092001F02BFD0021EC
:104C00000A2001F027FD00210C2001F023FD0021E6
:104C10000D2001F01FFD00210F2001F01BFD0021E0
:104C2000102001F017FD0721112001F013FD0021D4
:104C3000122001F00FFD0021132001F00BFD0021D7
:104C4000072001F007FD41F29061102001F002FD04
:104C500040F22721112001F0FDFC9D21122001F0DE
:104C6000F9FC4FF4C851132001F0F4FC2521292050
:104C700001F0F0FC0D212B2001F0ECFC072130208D
:104C800001F0E8FC40F20331312001F0E3FC0321A4
:104C9000322001F0DFFC40F20621352001F0DAFC81
:104CA0000821362001F0D6FC40F20641372001F001
:104CB000D1FC4FF4417100E058E0382001F0CAFC0B
:104CC0000721392001F0C6FC40F202613C2001F0CE
:104CD000C1FC08213D2001F0BDFC0021502001F065
:104CE000B9FCEF21512001F0B5FC0021522001F068
:104CF000B1FC40F23F11532001F0ACFC4FF42741CE
:104D0000602001F0A7FC0121612001F0A3FC00213B
:104D10006A2001F09FFC0021802001F09BFC002113
:104D2000812001F097FC0021822001F093FC0021FA
:104D3000832001F08FFC0021842001F08BFC0021F6
:104D4000852001F087FC1021902001F083FC4FF4B6
:104D5000C061922001F07EFC40F23311072001F087
:104D600079FC2221002001F075FC1FE78F48808824
:104D700049F2283188427DD141F28F01EC2001F0C7
:104D800069FC41F23421EF2001F064FC4FF48071A2
:104D9000012001F05FFC4FF4E061022001F05AFCB9
:104DA00041F23001032001F055FC0021042001F004
:104DB00051FC40F20221082001F04CFC00210920A6
:104DC00001F048FC00210A2001F044FC01210C20E4
:104DD00001F040FC00210D2001F03CFC00210F20DF
:104DE00001F038FC0021102001F034FC07211120D3
:104DF00001F030FC0021122001F02CFC00211320D6
:104E000001F028FC0121072001F024FC322002F0EF
:104E100049FA41F29041102001F01CFC40F2272198
:104E2000112001F017FC322002F03CFA8A211220F6
:104E300001F010FC322002F035FA4FF4D05113206B
:104E400001F008FC0621292001F004FC0D212B2093
:104E500001F000FC322002F025FA0021202001F0B0
:104E6000F9FB0021212001F0F5FB322002F01AFAB3
:104E7000002100E075E0302001F0ECFB40F204611D
:104E8000312001F0E7FB40F20531322001F0E2FB76
:104E90000021352001F0DEFB40F60941362001F00B
:104EA000D9FB4FF40171372001F0D4FB40F20131FE
:104EB000382001F0CFFB40F20771392001F0CAFB26
:104EC00000213C2001F0C6FB40F60A213D2001F004
:104ED000C1FB322002F0E6F90021502001F0BAFBBC
:104EE000EF21512001F0B6FB0021522001F0B2FB6E
:104EF00040F23F11532001F0ADFB4FF427416020F9
:104F000001F0A8FB0121612001F0A4FB00216A202F
:104F100001F0A0FB0021802001F09CFB00218120FA
:104F200001F098FB0021822001F094FB00218320F6
:104F300001F090FB0021842001F08CFB00218520F2
:104F400001F088FB1021902001F084FB4FF4C06138
:104F5000922001F07FFB40F23311072001F07AFB31
:104F600024E61248808849F2203188427ED100210F
:104F7000084601F06FFB4FF48071012001F06AFBDD
:104F80004FF4E061022001F065FB41F230010320A3
:104F900001F060FB0021042001F05CFB40F20221E3
:104FA000082001F057FB0021092001E048040020FF
:104FB00001F050FB00210A2001F04CFB01210C20E4
:104FC00001F048FB00210D2001F044FB00210F20DF
:104FD00001F040FB322002F065F940F20111072098
:104FE00001F038FB322002F05DF94FF486511020B9
:104FF00001F030FB0721112001F02CFB4FF48871E8
:10500000122001F027FB4FF43061132001F022FB46
:105010000021292001F01EFB44F210012B2001F099
:1050200019FB0021502001F015FBEF21512001F068
:1050300011FB0021522001F00DFB40F23F115320E3
:1050400001F008FB4FF41C51602001F003FB01212B
:10505000612001F0FFFA00216A2001F0FBFA002133
:10506000802001F0F7FA0021812000E030E001F01B
:10507000F1FA0021822001F0EDFA0021832001F0F5
:10508000E9FA0021842001F0E5FA0021852001F0F1
:10509000E1FA1021902001F0DDFA0021922001F0C8
:1050A000D9FA0121932001F0D5FA4FF488719520A7
:1050B00001F0D0FA0021972001F0CCFA00219820CD
:1050C00001F0C8FA40F27311072001F0C3FA6DE550
:1050D000FE48808849F2313188427DD141F2140185
:1050E000E72001F0B7FA4FF48071012001F0B2FA25
:1050F0004FF40071022001F0ADFA41F238010320B3
:1051000001F0A8FA40F20221082001F0A3FA0021E0
:10511000092001F09FFA00210A2001F09BFA0021EA
:105120000C2001F097FA00210D2001F093FA0021E4
:105130000F2001F08FFA0021102001F08BFA0721D7
:10514000112001F087FA0021122001F083FA0021DA
:10515000132001F07FFAC82002F0A4F841F2906118
:10516000102001F077FA40F22721112001F072FAA5
:10517000322002F097F80C21122001F06BFA322055
:1051800002F090F84FF40061132001F063FA11214E
:10519000292001F05FFA0B212B2001F05BFA32206D
:1051A00002F080F80021202001F054FA40F23F1173
:1051B000212001F04FFA0021302001F04BFA4FF48A
:1051C0008371312001F046FA0021322001F042FAC9
:1051D0004FF40171352000E064E001F03BFA41F248
:1051E0000A61362001F036FA40F20771372001F0EB
:1051F00031FA4FF48371382001F02CFA40F2077134
:10520000392001F027FA40F202413C2001F022FA55
:1052100040F60F413D2001F01DFA0021502001F021
:1052200019FAEF21512001F015FA0021522001F066
:1052300011FA40F23F11532001F00CFA4FF41C51C7
:10524000602001F007FA0121612001F003FA00213A
:105250006A2001F0FFF90021802001F0FBF9002114
:10526000812001F0F7F90021822001F0F3F90021FB
:10527000832001F0EFF90021842001F0EBF90021F7
:10528000852001F0E7F91021902001F0E3F94FF4B7
:10529000C061922001F0DEF940F23311072001F0E5
:1052A000D9F983E48948808845F2084188427DD154
:1052B0004FF48071012001F0CDF94FF4E06102203C
:1052C00001F0C8F941F23001032001F0C3F90021D7
:1052D000042001F0BFF940F20721082001F0BAF9DB
:1052E0000021092001F0B6F900210A2001F0B2F9ED
:1052F00000210C2001F0AEF900210D2001F0AAF9E7
:1053000000210F2001F0A6F9142001F0CBFF41F29B
:10531000B061102001F09EF90121112001F09AF9ED
:105320000121172001F096F94FF49C71122001F031
:1053300091F94FF40061132001F08CF90921292023
:1053400001F088F909212A2001F084F90021A42024
:1053500001F080F90021502001F07CF9EF2151206B
:1053600001F078F90021522001F074F940F23F1168
:10537000532001F06FF94FF41C51602001F06AF9DD
:105380000121612001F066F900216A2001F062F933
:105390000021802001F05EF90021812001F05AF9FE
:1053A0000021822001F056F9002100E024E0832052
:1053B00001F050F90021842001F04CF900218520F2
:1053C00001F048F91321902001F044F900219220C6
:1053D00001F040F90321932001F03CF94FF488716A
:1053E000952001F037F940F27311072001F032F9EE
:1053F000322001F057FFB8E43448808841F205516B
:1054000088427DD10021072001F024F9322001F0EB
:1054100049FF4FF48E71122001F01CF90121A420E4
:1054200001F018F90F21082001F014F908210A20D1
:1054300001F010F908210D2001F00CF940F207717C
:10544000302001F007F90721312001F003F940F283
:105450000361322001F0FEF84FF4E061332001F0E7
:10546000F9F840F20221342001F0F4F8022135204D
:1054700001F0F0F841F60F71362001F0EBF840F240
:105480000771372001F0E6F80021382001F0E2F83A
:105490000021392001F0DEF840F207713A2001F0D6
:1054A000D9F800213B2001F0D5F807213C2001F07C
:1054B000D1F800213D2001F0CDF8322001F0F2FEBC
:1054C0000121072001F0C6F8012101E04804002075
:1054D000172001F0BFF8322001F0E4FE4FF4BD5177
:1054E000102001F0B7F840F21721112001F0B2F8B6
:1054F0004FF48F71122001F0ADF84FF4706100E0AD
:1055000098E0132001F0A6F800212A2001F0A2F86B
:105510000A21292001F09EF84FF49F71122001F01A
:1055200099F80021502001F095F8EF21512001F069
:1055300091F80021522001F08DF840F23F115320E4
:1055400001F088F84FF41C51602001F083F801212C
:10555000612001F07FF800216A2001F07BF8002132
:10556000802001F077F80021812001F073F80021FC
:10557000822001F06FF80021832001F06BF80021F8
:10558000842001F067F80021852001F063F81321E1
:10559000902001F05FF84FF44071922001F05AF82A
:1055A0000521932001F056F80021952001F052F8D2
:1055B0000021972001F04EF80021982001F04AF8D0
:1055C0004FF48071012001F045F84FF4E0610220B2
:1055D00001F040F841F23801032001F03BF80021CE
:1055E000042001F037F800210C2001F033F80021ED
:1055F0000F2001F02FF80021202001F02BF80021CE
:10560000212001F027F82121072001F023F81420A0
:1056100001F048FE6121072001F01CF8142001F080
:1056200041FE40F27311072001F014F8142001F03C
:1056300039FE95E4FE4880884BF2055188427CD1C2
:105640000021084601F006F80021084601F002F8A2
:105650000021084600F0FEFF0021084600F0FAFF96
:105660000121A42000F0F6FF142001F01BFE4FF4EE
:105670001C51602000F0EEFF40F20221082000F0F3
:10568000E9FF4FF40571302000F0E4FF43F215719B
:10569000312000F0DFFF40F20461322000F0DAFF39
:1056A00040F61661332000F0D5FF42F2112134207C
:1056B00000F0D0FF4FF4A851352000F0CBFF48F2A6
:1056C0000751362000F0C6FF41F20741372000F0B5
:1056D000C1FF41F20341382000F0BCFF20213920F6
:1056E00000F0B8FF1A21902000F0B4FF0021102034
:1056F00000F0B0FF0721112000F0ACFF00211220C4
:1057000000F0A8FF0021132000F0A4FF142001F0F6
:10571000C9FD4FF4E661102000F09CFF40F2371104
:10572000112000F097FF142001F0BCFD4FF4DC7154
:10573000122000F08FFF142000E085E001F0B2FDA0
:105740004FF47061132000F085FF80212A2000F0C3
:1057500081FF4821292000F07DFF142001F0A2FDE7
:105760004FF48071012000F075FF4FF4E0610220DA
:1057700000F070FF41F23801032000F06BFF40F2AF
:105780000221082000F066FF00210A2000F062FFDD
:1057900000210C2000F05EFF00210D2000F05AFFD8
:1057A00030210E2000F056FF0021502000F052FF63
:1057B000EF21512000F04EFF0021522000F04AFF5F
:1057C00040F23F11532000F045FF4FF41C51602080
:1057D00000F040FF0121612000F03CFF00216A2021
:1057E00000F038FF1121902000F034FF4FF4C06129
:1057F000922000F02FFF40F20241932000F02AFF98
:105800000221942000F026FF142001F04BFD01211D
:10581000072000F01FFF142001F044FD6121072044
:1058200000F018FF40F27311072000F013FF002171
:10583000202000F00FFF0021212000F00BFF22218B
:10584000002000F007FF11E3794880884CF20551F1
:1058500088427CD10021084600F0FCFE0021084669
:1058600000F0F8FE142001F01DFD0021084600F0B4
:10587000F1FE0021084600F0EDFE0021084600F090
:10588000E9FE0021084600F0E5FE0121A42000F019
:10589000E1FE142001F006FD4FF41C51602000F0E1
:1058A000D9FE40F60601082000F0D4FE40F2037154
:1058B000302000F0CFFE0121312000F0CBFE04218A
:1058C000322000F0C7FE4FF48171332000F0C2FE99
:1058D0004FF44071342000F0BDFE40F2031135203A
:1058E00000F0B8FE1F21362000F0B4FE40F2037134
:1058F000372000F0AFFE0121382000F0ABFE04217C
:10590000392000F0A7FE1521902000F0A3FE4FF4EF
:105910008261102000F09EFE40F24721112000F02D
:1059200099FE4FF4DE71122000F094FE4FF4606196
:10593000132000F08FFE782001F0B4FC4FF480714A
:10594000012000F087FE4FF40071022000E052E0D9
:1059500000F080FE41F23001032000F07BFE0821C0
:105960000A2000F077FE00210C2000F073FE2021B9
:105970000E2000F06FFE00210F2000F06BFE0021D2
:10598000202000F067FE0021212000F063FE3D2171
:105990002A2000F05FFE142001F084FC2D21292034
:1059A00000F058FE0021502000F054FE4DF2EF01AF
:1059B000512000F04FFE0021522000F04BFE40F23B
:1059C0003F11532000F046FE0021612000F042FE0E
:1059D00000216A2000F03EFE4FF44071922000F05A
:1059E00039FE0521932000F035FE4FF48071072029
:1059F00000F030FE3AE20E48808844F2315188428D
:105A00007ED10121002000F025FE0A2001F04AFC91
:105A100041F22861102000F01DFE0E21122000F03E
:105A200019FE40F63921132000F014FE0A2001E08F
:105A30004804002001F036FC4021112000F00AFE4D
:105A40005021152000F006FE0A2001F02BFC1E213B
:105A5000122000F0FFFD0A2001F024FC4FF4B151A8
:105A6000102000F0F7FD42F63921132000F0F2FD7E
:105A70000A2001F017FC4FF48071012000F0EAFDCC
:105A80004FF44071022000F0E5FD41F2380103209F
:105A900000F0E0FD40F20221082000F0DBFD0821CB
:105AA0000A2000F0D7FD0021302000F0D3FD40F2A5
:105AB0000241312000F0CEFD4FF48371322000F01E
:105AC000C9FD40F20351332000F0C4FD4FF4827150
:105AD000342000F0BFFD40F20131352000F0BAFD66
